:1000000009C016C015C014C013C012C055C010C01E
:100010000FC00EC011241FBECFE9CDBF20E0A0E667
:10002000B0E001C01D92A436B207E1F714D06FC052
:10003000E7CF009779F032E80BC000000000000025
:100040000000000000002150C1F70197009711F057
:10005000232FF3CF089588E187BB88B3836088BBE3
:1000600082E08FBD85E083BF89B7846089BF8DE55D
:1000700086BF7894C0E0D0E0B09919C0CF5FC3309C
:1000800051F4809162009091630001969093630017
:10009000809362000DC0C23359F480916200909148
:1000A00063000996909363008093620001C0CD2F96
:1000B00085E090E0BEDFE0CF1F920F920FB60F9267
:1000C00011242F933F938F939F93C49B02C0C49896
:1000D00015C0209160003091610080916200909184
:1000E00063002817390751F0C49A809160009091FD
:1000F0006100019690936100809360009F918F91C1
:100100003F912F910F900FBE0F901F901895F8946C
:02011000FFCF1F
:00000001FF
